{
  "_format": "hh-sol-artifact-1",
  "contractName": "HemaHope",
  "sourceName": "contracts/HemaHope.sol",
  "abi": [
    {
      "inputs": [],
      "stateMutability": "nonpayable",
      "type": "constructor"
    },
    {
      "anonymous": false,
      "inputs": [
        {
          "indexed": true,
          "internalType": "address",
          "name": "campaignAddress",
          "type": "address"
        }
      ],
      "name": "CampaignClosed",
      "type": "event"
    },
    {
      "anonymous": false,
      "inputs": [
        {
          "indexed": true,
          "internalType": "address",
          "name": "campaignAddress",
          "type": "address"
        },
        {
          "indexed": false,
          "internalType": "string",
          "name": "name",
          "type": "string"
        }
      ],
      "name": "CampaignCreated",
      "type": "event"
    },
    {
      "anonymous": false,
      "inputs": [
        {
          "indexed": true,
          "internalType": "address",
          "name": "campaignAddress",
          "type": "address"
        },
        {
          "indexed": true,
          "internalType": "address",
          "name": "donor",
          "type": "address"
        },
        {
          "indexed": false,
          "internalType": "string",
          "name": "itemDescription",
          "type": "string"
        }
      ],
      "name": "PhysicalItemReceived",
      "type": "event"
    },
    {
      "inputs": [
        {
          "internalType": "uint256",
          "name": "",
          "type": "uint256"
        }
      ],
      "name": "campaignAddresses",
      "outputs": [
        {
          "internalType": "address",
          "name": "",
          "type": "address"
        }
      ],
      "stateMutability": "view",
      "type": "function"
    },
    {
      "inputs": [
        {
          "internalType": "address",
          "name": "",
          "type": "address"
        }
      ],
      "name": "campaigns",
      "outputs": [
        {
          "internalType": "contract Campaign",
          "name": "",
          "type": "address"
        }
      ],
      "stateMutability": "view",
      "type": "function"
    },
    {
      "inputs": [
        {
          "internalType": "address",
          "name": "campaignAddress",
          "type": "address"
        }
      ],
      "name": "closeCampaign",
      "outputs": [],
      "stateMutability": "nonpayable",
      "type": "function"
    },
    {
      "inputs": [
        {
          "internalType": "string",
          "name": "name",
          "type": "string"
        },
        {
          "internalType": "string",
          "name": "description",
          "type": "string"
        },
        {
          "internalType": "string",
          "name": "targetItems",
          "type": "string"
        }
      ],
      "name": "createPhysicalItemCampaign",
      "outputs": [],
      "stateMutability": "nonpayable",
      "type": "function"
    },
    {
      "inputs": [],
      "name": "getAllCampaigns",
      "outputs": [
        {
          "internalType": "address[]",
          "name": "",
          "type": "address[]"
        }
      ],
      "stateMutability": "view",
      "type": "function"
    },
    {
      "inputs": [],
      "name": "owner",
      "outputs": [
        {
          "internalType": "address",
          "name": "",
          "type": "address"
        }
      ],
      "stateMutability": "view",
      "type": "function"
    },
    {
      "inputs": [
        {
          "internalType": "address",
          "name": "campaignAddress",
          "type": "address"
        },
        {
          "internalType": "address",
          "name": "donor",
          "type": "address"
        },
        {
          "internalType": "string",
          "name": "itemDescription",
          "type": "string"
        }
      ],
      "name": "receivePhysicalItem",
      "outputs": [],
      "stateMutability": "nonpayable",
      "type": "function"
    }
  ],
  "bytecode": "0x608060405234801561001057600080fd5b50336000806101000a81548173ffffffffffffffffffffffffffffffffffffffff021916908373ffffffffffffffffffffffffffffffffffffffff160217905550612a0a806100606000396000f3fe60806040523480156200001157600080fd5b5060043610620000885760003560e01c806386cdf604116200006357806386cdf60414620001195780638da5cb5b146200013b5780638f497a14146200015d5780639335e5ab146200017d5762000088565b80631601d0b5146200008d5780631b422e5f14620000c357806367f5f32d14620000f9575b600080fd5b620000ab6004803603810190620000a5919062000941565b6200019d565b604051620000ba9190620009de565b60405180910390f35b620000e16004803603810190620000db919062000a36565b620001d0565b604051620000f0919062000a79565b60405180910390f35b62000117600480360381019062000111919062000941565b62000210565b005b6200012362000420565b60405162000132919062000b64565b60405180910390f35b62000145620004b0565b60405162000154919062000a79565b60405180910390f35b6200017b600480360381019062000175919062000cea565b620004d4565b005b6200019b600480360381019062000195919062000d65565b620006af565b005b60016020528060005260406000206000915054906101000a900473ffffffffffffffffffffffffffffffffffffffff1681565b60028181548110620001e157600080fd5b906000526020600020016000915054906101000a900473ffffffffffffffffffffffffffffffffffffffff1681565b60008054906101000a900473ffffffffffffffffffffffffffffffffffffffff1673ffffffffffffffffffffffffffffffffffffffff163373ffffffffffffffffffffffffffffffffffffffff1614620002a1576040517f08c379a0000000000000000000000000000000000000000000000000000000008152600401620002989062000ea5565b60405180910390fd5b6000600160008373ffffffffffffffffffffffffffffffffffffffff1673ffffffffffffffffffffffffffffffffffffffff16815260200190815260200160002060009054906101000a900473ffffffffffffffffffffffffffffffffffffffff169050600073ffffffffffffffffffffffffffffffffffffffff168173ffffffffffffffffffffffffffffffffffffffff160362000377576040517f08c379a00000000000000000000000000000000000000000000000000000000081526004016200036e9062000f17565b60405180910390fd5b8073ffffffffffffffffffffffffffffffffffffffff1663d7557f186040518163ffffffff1660e01b8152600401600060405180830381600087803b158015620003c057600080fd5b505af1158015620003d5573d6000803e3d6000fd5b505050508173ffffffffffffffffffffffffffffffffffffffff167f2cc6b7f4a64721896dc69033b18d6cafb9edb171b7266f50cf6167dfaf2c9fe060405160405180910390a25050565b60606002805480602002602001604051908101604052809291908181526020018280548015620004a657602002820191906000526020600020905b8160009054906101000a900473ffffffffffffffffffffffffffffffffffffffff1673ffffffffffffffffffffffffffffffffffffffff16815260200190600101908083116200045b575b5050505050905090565b60008054906101000a900473ffffffffffffffffffffffffffffffffffffffff1681565b6000600160008573ffffffffffffffffffffffffffffffffffffffff1673ffffffffffffffffffffffffffffffffffffffff16815260200190815260200160002060009054906101000a900473ffffffffffffffffffffffffffffffffffffffff169050600073ffffffffffffffffffffffffffffffffffffffff168173ffffffffffffffffffffffffffffffffffffffff1603620005aa576040517f08c379a0000000000000000000000000000000000000000000000000000000008152600401620005a19062000f17565b60405180910390fd5b60008383604051602001620005c1929190620010a2565b60405160208183030381529060405290508173ffffffffffffffffffffffffffffffffffffffff16630761164e826040518263ffffffff1660e01b81526004016200060d919062001129565b600060405180830381600087803b1580156200062857600080fd5b505af11580156200063d573d6000803e3d6000fd5b505050508373ffffffffffffffffffffffffffffffffffffffff168573ffffffffffffffffffffffffffffffffffffffff167f2bd4e7820adb831c0d45424aaee309ed6c7db3ed43aa487c518ff065a540357c85604051620006a0919062001129565b60405180910390a35050505050565b60008054906101000a900473ffffffffffffffffffffffffffffffffffffffff1673ffffffffffffffffffffffffffffffffffffffff163373ffffffffffffffffffffffffffffffffffffffff161462000740576040517f08c379a0000000000000000000000000000000000000000000000000000000008152600401620007379062000ea5565b60405180910390fd5b6000838383336040516200075490620008ba565b6200076394939291906200114d565b604051809103906000f08015801562000780573d6000803e3d6000fd5b50905080600160008373ffffffffffffffffffffffffffffffffffffffff1673ffffffffffffffffffffffffffffffffffffffff16815260200190815260200160002060006101000a81548173ffffffffffffffffffffffffffffffffffffffff021916908373ffffffffffffffffffffffffffffffffffffffff1602179055506002819080600181540180825580915050600190039060005260206000200160009091909190916101000a81548173ffffffffffffffffffffffffffffffffffffffff021916908373ffffffffffffffffffffffffffffffffffffffff1602179055508073ffffffffffffffffffffffffffffffffffffffff167f17dd0b5f0975f4651b002ed3b016428bae979f5704d8b2473931b2312185c05a85604051620008ac919062001129565b60405180910390a250505050565b61182580620011b083390190565b6000604051905090565b600080fd5b600080fd5b600073ffffffffffffffffffffffffffffffffffffffff82169050919050565b60006200090982620008dc565b9050919050565b6200091b81620008fc565b81146200092757600080fd5b50565b6000813590506200093b8162000910565b92915050565b6000602082840312156200095a5762000959620008d2565b5b60006200096a848285016200092a565b91505092915050565b6000819050919050565b60006200099e620009986200099284620008dc565b62000973565b620008dc565b9050919050565b6000620009b2826200097d565b9050919050565b6000620009c682620009a5565b9050919050565b620009d881620009b9565b82525050565b6000602082019050620009f56000830184620009cd565b92915050565b6000819050919050565b62000a1081620009fb565b811462000a1c57600080fd5b50565b60008135905062000a308162000a05565b92915050565b60006020828403121562000a4f5762000a4e620008d2565b5b600062000a5f8482850162000a1f565b91505092915050565b62000a7381620008fc565b82525050565b600060208201905062000a90600083018462000a68565b92915050565b600081519050919050565b600082825260208201905092915050565b6000819050602082019050919050565b62000acd81620008fc565b82525050565b600062000ae1838362000ac2565b60208301905092915050565b6000602082019050919050565b600062000b078262000a96565b62000b13818562000aa1565b935062000b208362000ab2565b8060005b8381101562000b5757815162000b3b888262000ad3565b975062000b488362000aed565b92505060018101905062000b24565b5085935050505092915050565b6000602082019050818103600083015262000b80818462000afa565b905092915050565b600080fd5b600080fd5b6000601f19601f8301169050919050565b7f4e487b7100000000000000000000000000000000000000000000000000000000600052604160045260246000fd5b62000bdd8262000b92565b810181811067ffffffffffffffff8211171562000bff5762000bfe62000ba3565b5b80604052505050565b600062000c14620008c8565b905062000c22828262000bd2565b919050565b600067ffffffffffffffff82111562000c455762000c4462000ba3565b5b62000c508262000b92565b9050602081019050919050565b82818337600083830152505050565b600062000c8362000c7d8462000c27565b62000c08565b90508281526020810184848401111562000ca25762000ca162000b8d565b5b62000caf84828562000c5d565b509392505050565b600082601f83011262000ccf5762000cce62000b88565b5b813562000ce184826020860162000c6c565b91505092915050565b60008060006060848603121562000d065762000d05620008d2565b5b600062000d16868287016200092a565b935050602062000d29868287016200092a565b925050604084013567ffffffffffffffff81111562000d4d5762000d4c620008d7565b5b62000d5b8682870162000cb7565b9150509250925092565b60008060006060848603121562000d815762000d80620008d2565b5b600084013567ffffffffffffffff81111562000da25762000da1620008d7565b5b62000db08682870162000cb7565b935050602084013567ffffffffffffffff81111562000dd45762000dd3620008d7565b5b62000de28682870162000cb7565b925050604084013567ffffffffffffffff81111562000e065762000e05620008d7565b5b62000e148682870162000cb7565b9150509250925092565b600082825260208201905092915050565b7f4f6e6c7920746865206f776e65722063616e20706572666f726d20746869732060008201527f616374696f6e0000000000000000000000000000000000000000000000000000602082015250565b600062000e8d60268362000e1e565b915062000e9a8262000e2f565b604082019050919050565b6000602082019050818103600083015262000ec08162000e7e565b9050919050565b7f43616d706169676e206e6f7420666f756e640000000000000000000000000000600082015250565b600062000eff60128362000e1e565b915062000f0c8262000ec7565b602082019050919050565b6000602082019050818103600083015262000f328162000ef0565b9050919050565b600081905092915050565b7f446f6e6f723a2000000000000000000000000000000000000000000000000000600082015250565b600062000f7c60078362000f39565b915062000f898262000f44565b600782019050919050565b60008160601b9050919050565b600062000fae8262000f94565b9050919050565b600062000fc28262000fa1565b9050919050565b62000fde62000fd882620008fc565b62000fb5565b82525050565b7f202d204974656d204465736372697074696f6e3a200000000000000000000000600082015250565b60006200101c60158362000f39565b9150620010298262000fe4565b601582019050919050565b600081519050919050565b60005b838110156200105f57808201518184015260208101905062001042565b60008484015250505050565b6000620010788262001034565b62001084818562000f39565b9350620010968185602086016200103f565b80840191505092915050565b6000620010af8262000f6d565b9150620010bd828562000fc9565b601482019150620010ce826200100d565b9150620010dc82846200106b565b91508190509392505050565b6000620010f58262001034565b62001101818562000e1e565b9350620011138185602086016200103f565b6200111e8162000b92565b840191505092915050565b60006020820190508181036000830152620011458184620010e8565b905092915050565b60006080820190508181036000830152620011698187620010e8565b905081810360208301526200117f8186620010e8565b90508181036040830152620011958185620010e8565b9050620011a6606083018462000a68565b9594505050505056fe60806040523480156200001157600080fd5b5060405162001825380380620018258339818101604052810190620000379190620002ca565b8360019081620000489190620005e4565b5082600290816200005a9190620005e4565b5081600390816200006c9190620005e4565b50806000806101000a81548173ffffffffffffffffffffffffffffffffffffffff021916908373ffffffffffffffffffffffffffffffffffffffff1602179055506001600560006101000a81548160ff02191690831515021790555050505050620006cb565b6000604051905090565b600080fd5b600080fd5b600080fd5b600080fd5b6000601f19601f8301169050919050565b7f4e487b7100000000000000000000000000000000000000000000000000000000600052604160045260246000fd5b6200013b82620000f0565b810181811067ffffffffffffffff821117156200015d576200015c62000101565b5b80604052505050565b600062000172620000d2565b905062000180828262000130565b919050565b600067ffffffffffffffff821115620001a357620001a262000101565b5b620001ae82620000f0565b9050602081019050919050565b60005b83811015620001db578082015181840152602081019050620001be565b60008484015250505050565b6000620001fe620001f88462000185565b62000166565b9050828152602081018484840111156200021d576200021c620000eb565b5b6200022a848285620001bb565b509392505050565b600082601f8301126200024a5762000249620000e6565b5b81516200025c848260208601620001e7565b91505092915050565b600073ffffffffffffffffffffffffffffffffffffffff82169050919050565b6000620002928262000265565b9050919050565b620002a48162000285565b8114620002b057600080fd5b50565b600081519050620002c48162000299565b92915050565b60008060008060808587031215620002e757620002e6620000dc565b5b600085015167ffffffffffffffff811115620003085762000307620000e1565b5b620003168782880162000232565b945050602085015167ffffffffffffffff8111156200033a5762000339620000e1565b5b620003488782880162000232565b935050604085015167ffffffffffffffff8111156200036c576200036b620000e1565b5b6200037a8782880162000232565b92505060606200038d87828801620002b3565b91505092959194509250565b600081519050919050565b7f4e487b7100000000000000000000000000000000000000000000000000000000600052602260045260246000fd5b60006002820490506001821680620003ec57607f821691505b602082108103620004025762000401620003a4565b5b50919050565b60008190508160005260206000209050919050565b60006020601f8301049050919050565b600082821b905092915050565b6000600883026200046c7fffffffffffffffffffffffffffffffffffffffffffffffffffffffffffffffff826200042d565b6200047886836200042d565b95508019841693508086168417925050509392505050565b6000819050919050565b6000819050919050565b6000620004c5620004bf620004b98462000490565b6200049a565b62000490565b9050919050565b6000819050919050565b620004e183620004a4565b620004f9620004f082620004cc565b8484546200043a565b825550505050565b600090565b6200051062000501565b6200051d818484620004d6565b505050565b5b8181101562000545576200053960008262000506565b60018101905062000523565b5050565b601f82111562000594576200055e8162000408565b62000569846200041d565b8101602085101562000579578190505b6200059162000588856200041d565b83018262000522565b50505b505050565b600082821c905092915050565b6000620005b96000198460080262000599565b1980831691505092915050565b6000620005d48383620005a6565b9150826002028217905092915050565b620005ef8262000399565b67ffffffffffffffff8111156200060b576200060a62000101565b5b620006178254620003d3565b6200062482828562000549565b600060209050601f8311600181146200065c576000841562000647578287015190505b620006538582620005c6565b865550620006c3565b601f1984166200066c8662000408565b60005b8281101562000696578489015182556001820191506020850194506020810190506200066f565b86831015620006b65784890151620006b2601f891682620005a6565b8355505b6001600288020188555050505b505050505050565b61114a80620006db6000396000f3fe608060405234801561001057600080fd5b506004361061009e5760003560e01c8063863559cf11610066578063863559cf14610137578063ca0cdea814610155578063d7557f1814610185578063de2ed8931461018f578063f8626af8146101ad5761009e565b806306fdde03146100a35780630761164e146100c157806322f3e2d4146100dd578063481c6a75146100fb5780637284e41614610119575b600080fd5b6100ab6101de565b6040516100b89190610867565b60405180910390f35b6100db60048036038101906100d691906109d2565b61026c565b005b6100e561046c565b6040516100f29190610a36565b60405180910390f35b61010361047f565b6040516101109190610a92565b60405180910390f35b6101216104a3565b60405161012e9190610867565b60405180910390f35b61013f610531565b60405161014c9190610867565b60405180910390f35b61016f600480360381019061016a9190610ad9565b6105bf565b60405161017c9190610a36565b60405180910390f35b61018d6105df565b005b610197610705565b6040516101a49190610b1f565b60405180910390f35b6101c760048036038101906101c29190610b66565b61070b565b6040516101d5929190610b93565b60405180910390f35b600180546101eb90610bf2565b80601f016020809104026020016040519081016040528092919081815260200182805461021790610bf2565b80156102645780601f1061023957610100808354040283529160200191610264565b820191906000526020600020905b81548152906001019060200180831161024757829003601f168201915b505050505081565b600560009054906101000a900460ff166102bb576040517f08c379a00000000000000000000000000000000000000000000000000000000081526004016102b290610c6f565b60405180910390fd5b60008151116102ff576040517f08c379a00000000000000000000000000000000000000000000000000000000081526004016102f690610d01565b60405180910390fd5b60006004549050600060405180604001604052803373ffffffffffffffffffffffffffffffffffffffff168152602001848152509050806007600084815260200190815260200160002060008201518160000160006101000a81548173ffffffffffffffffffffffffffffffffffffffff021916908373ffffffffffffffffffffffffffffffffffffffff16021790555060208201518160010190816103a59190610ecd565b509050506001600660003373ffffffffffffffffffffffffffffffffffffffff1673ffffffffffffffffffffffffffffffffffffffff16815260200190815260200160002060006101000a81548160ff0219169083151502179055506004600081548092919061041490610fce565b91905055503373ffffffffffffffffffffffffffffffffffffffff167f4e0003e8905e47174fc8f04d0e185fe54ac6dbbda5d1c598f302ffa6a0c0e8988460405161045f9190610867565b60405180910390a2505050565b600560009054906101000a900460ff1681565b60008054906101000a900473ffffffffffffffffffffffffffffffffffffffff1681565b600280546104b090610bf2565b80601f01602080910402602001604051908101604052809291908181526020018280546104dc90610bf2565b80156105295780601f106104fe57610100808354040283529160200191610529565b820191906000526020600020905b81548152906001019060200180831161050c57829003601f168201915b505050505081565b6003805461053e90610bf2565b80601f016020809104026020016040519081016040528092919081815260200182805461056a90610bf2565b80156105b75780601f1061058c576101008083540402835291602001916105b7565b820191906000526020600020905b81548152906001019060200180831161059a57829003601f168201915b505050505081565b60066020528060005260406000206000915054906101000a900460ff1681565b60008054906101000a900473ffffffffffffffffffffffffffffffffffffffff1673ffffffffffffffffffffffffffffffffffffffff163373ffffffffffffffffffffffffffffffffffffffff161461066d576040517f08c379a000000000000000000000000000000000000000000000000000000000815260040161066490611088565b60405180910390fd5b600560009054906101000a900460ff166106bc576040517f08c379a00000000000000000000000000000000000000000000000000000000081526004016106b3906110f4565b60405180910390fd5b6000600560006101000a81548160ff0219169083151502179055507fb49a509a88f868a6f6fce6bfa9c1e1a7faf4e371b9ee245a8695b03ac90680c460405160405180910390a1565b60045481565b60076020528060005260406000206000915090508060000160009054906101000a900473ffffffffffffffffffffffffffffffffffffffff169080600101805461075490610bf2565b80601f016020809104026020016040519081016040528092919081815260200182805461078090610bf2565b80156107cd5780601f106107a2576101008083540402835291602001916107cd565b820191906000526020600020905b8154815290600101906020018083116107b057829003601f168201915b5050505050905082565b600081519050919050565b600082825260208201905092915050565b60005b838110156108115780820151818401526020810190506107f6565b60008484015250505050565b6000601f19601f8301169050919050565b6000610839826107d7565b61084381856107e2565b93506108538185602086016107f3565b61085c8161081d565b840191505092915050565b60006020820190508181036000830152610881818461082e565b905092915050565b6000604051905090565b600080fd5b600080fd5b600080fd5b600080fd5b7f4e487b7100000000000000000000000000000000000000000000000000000000600052604160045260246000fd5b6108df8261081d565b810181811067ffffffffffffffff821117156108fe576108fd6108a7565b5b80604052505050565b6000610911610889565b905061091d82826108d6565b919050565b600067ffffffffffffffff82111561093d5761093c6108a7565b5b6109468261081d565b9050602081019050919050565b82818337600083830152505050565b600061097561097084610922565b610907565b905082815260208101848484011115610991576109906108a2565b5b61099c848285610953565b509392505050565b600082601f8301126109b9576109b861089d565b5b81356109c9848260208601610962565b91505092915050565b6000602082840312156109e8576109e7610893565b5b600082013567ffffffffffffffff811115610a0657610a05610898565b5b610a12848285016109a4565b91505092915050565b60008115159050919050565b610a3081610a1b565b82525050565b6000602082019050610a4b6000830184610a27565b92915050565b600073ffffffffffffffffffffffffffffffffffffffff82169050919050565b6000610a7c82610a51565b9050919050565b610a8c81610a71565b82525050565b6000602082019050610aa76000830184610a83565b92915050565b610ab681610a71565b8114610ac157600080fd5b50565b600081359050610ad381610aad565b92915050565b600060208284031215610aef57610aee610893565b5b6000610afd84828501610ac4565b91505092915050565b6000819050919050565b610b1981610b06565b82525050565b6000602082019050610b346000830184610b10565b92915050565b610b4381610b06565b8114610b4e57600080fd5b50565b600081359050610b6081610b3a565b92915050565b600060208284031215610b7c57610b7b610893565b5b6000610b8a84828501610b51565b91505092915050565b6000604082019050610ba86000830185610a83565b8181036020830152610bba818461082e565b90509392505050565b7f4e487b7100000000000000000000000000000000000000000000000000000000600052602260045260246000fd5b60006002820490506001821680610c0a57607f821691505b602082108103610c1d57610c1c610bc3565b5b50919050565b7f43616d706169676e206973206e6f742061637469766500000000000000000000600082015250565b6000610c596016836107e2565b9150610c6482610c23565b602082019050919050565b60006020820190508181036000830152610c8881610c4c565b9050919050565b7f4974656d206465736372697074696f6e206d7573742062652070726f7669646560008201527f6400000000000000000000000000000000000000000000000000000000000000602082015250565b6000610ceb6021836107e2565b9150610cf682610c8f565b604082019050919050565b60006020820190508181036000830152610d1a81610cde565b9050919050565b60008190508160005260206000209050919050565b60006020601f8301049050919050565b600082821b905092915050565b600060088302610d837fffffffffffffffffffffffffffffffffffffffffffffffffffffffffffffffff82610d46565b610d8d8683610d46565b95508019841693508086168417925050509392505050565b6000819050919050565b6000610dca610dc5610dc084610b06565b610da5565b610b06565b9050919050565b6000819050919050565b610de483610daf565b610df8610df082610dd1565b848454610d53565b825550505050565b600090565b610e0d610e00565b610e18818484610ddb565b505050565b5b81811015610e3c57610e31600082610e05565b600181019050610e1e565b5050565b601f821115610e8157610e5281610d21565b610e5b84610d36565b81016020851015610e6a578190505b610e7e610e7685610d36565b830182610e1d565b50505b505050565b600082821c905092915050565b6000610ea460001984600802610e86565b1980831691505092915050565b6000610ebd8383610e93565b9150826002028217905092915050565b610ed6826107d7565b67ffffffffffffffff811115610eef57610eee6108a7565b5b610ef98254610bf2565b610f04828285610e40565b600060209050601f831160018114610f375760008415610f25578287015190505b610f2f8582610eb1565b865550610f97565b601f198416610f4586610d21565b60005b82811015610f6d57848901518255600182019150602085019450602081019050610f48565b86831015610f8a5784890151610f86601f891682610e93565b8355505b6001600288020188555050505b505050505050565b7f4e487b7100000000000000000000000000000000000000000000000000000000600052601160045260246000fd5b6000610fd982610b06565b91507fffffffffffffffffffffffffffffffffffffffffffffffffffffffffffffffff820361100b5761100a610f9f565b5b600182019050919050565b7f4f6e6c79207468652063616d706169676e206d616e616765722063616e20706560008201527f72666f726d207468697320616374696f6e000000000000000000000000000000602082015250565b60006110726031836107e2565b915061107d82611016565b604082019050919050565b600060208201905081810360008301526110a181611065565b9050919050565b7f43616d706169676e20697320616c726561647920636c6f736564000000000000600082015250565b60006110de601a836107e2565b91506110e9826110a8565b602082019050919050565b6000602082019050818103600083015261110d816110d1565b905091905056fea2646970667358221220213a84490303fe9470a7dfc9bd61a2be7d9e8cece8d554861e4dc820f9a027ea64736f6c63430008140033a264697066735822122049dc257783506dd509ac0e9fa8323c5c58947461badc0a613e4558a39ea7eea464736f6c63430008140033",
  "linkReferences": {},
  "deployedLinkReferences": {}
}